{
  "contractName": "SimpleLibrary",
  "abi": [
    {
      "inputs": [],
      "stateMutability": "nonpayable",
      "type": "constructor"
    },
    {
      "anonymous": false,
      "inputs": [
        {
          "indexed": false,
          "internalType": "uint256",
          "name": "bookid",
          "type": "uint256"
        }
      ],
      "name": "LogBookAdded",
      "type": "event"
    },
    {
      "anonymous": false,
      "inputs": [
        {
          "indexed": false,
          "internalType": "uint256",
          "name": "bookid",
          "type": "uint256"
        }
      ],
      "name": "LogBookBorrowed",
      "type": "event"
    },
    {
      "anonymous": false,
      "inputs": [
        {
          "indexed": false,
          "internalType": "uint256",
          "name": "bookid",
          "type": "uint256"
        }
      ],
      "name": "LogBookReturned",
      "type": "event"
    },
    {
      "anonymous": false,
      "inputs": [
        {
          "indexed": false,
          "internalType": "address",
          "name": "account",
          "type": "address"
        }
      ],
      "name": "Paused",
      "type": "event"
    },
    {
      "anonymous": false,
      "inputs": [
        {
          "indexed": false,
          "internalType": "address",
          "name": "account",
          "type": "address"
        }
      ],
      "name": "Unpaused",
      "type": "event"
    },
    {
      "inputs": [],
      "name": "bookId",
      "outputs": [
        {
          "internalType": "uint256",
          "name": "",
          "type": "uint256"
        }
      ],
      "stateMutability": "view",
      "type": "function",
      "constant": true
    },
    {
      "inputs": [
        {
          "internalType": "uint256",
          "name": "",
          "type": "uint256"
        }
      ],
      "name": "books",
      "outputs": [
        {
          "internalType": "string",
          "name": "title",
          "type": "string"
        },
        {
          "internalType": "string",
          "name": "author",
          "type": "string"
        },
        {
          "internalType": "string",
          "name": "img",
          "type": "string"
        },
        {
          "internalType": "uint256",
          "name": "bookid",
          "type": "uint256"
        },
        {
          "internalType": "uint256",
          "name": "rental",
          "type": "uint256"
        },
        {
          "internalType": "enum SimpleLibrary.State",
          "name": "state",
          "type": "uint8"
        },
        {
          "internalType": "address payable",
          "name": "lender",
          "type": "address"
        },
        {
          "internalType": "address payable",
          "name": "borrower",
          "type": "address"
        }
      ],
      "stateMutability": "view",
      "type": "function",
      "constant": true
    },
    {
      "inputs": [],
      "name": "paused",
      "outputs": [
        {
          "internalType": "bool",
          "name": "",
          "type": "bool"
        }
      ],
      "stateMutability": "view",
      "type": "function",
      "constant": true
    },
    {
      "inputs": [
        {
          "internalType": "string",
          "name": "_title",
          "type": "string"
        },
        {
          "internalType": "string",
          "name": "_author",
          "type": "string"
        },
        {
          "internalType": "string",
          "name": "_img",
          "type": "string"
        },
        {
          "internalType": "uint256",
          "name": "_rental",
          "type": "uint256"
        }
      ],
      "name": "addBook",
      "outputs": [
        {
          "internalType": "bool",
          "name": "",
          "type": "bool"
        }
      ],
      "stateMutability": "nonpayable",
      "type": "function"
    },
    {
      "inputs": [
        {
          "internalType": "uint256",
          "name": "bookid",
          "type": "uint256"
        }
      ],
      "name": "borrowBook",
      "outputs": [],
      "stateMutability": "payable",
      "type": "function",
      "payable": true
    },
    {
      "inputs": [
        {
          "internalType": "uint256",
          "name": "bookid",
          "type": "uint256"
        }
      ],
      "name": "returnBook",
      "outputs": [],
      "stateMutability": "payable",
      "type": "function",
      "payable": true
    },
    {
      "inputs": [],
      "name": "pause",
      "outputs": [],
      "stateMutability": "nonpayable",
      "type": "function"
    },
    {
      "inputs": [],
      "name": "resume",
      "outputs": [],
      "stateMutability": "nonpayable",
      "type": "function"
    },
    {
      "inputs": [
        {
          "internalType": "uint256",
          "name": "_bookid",
          "type": "uint256"
        }
      ],
      "name": "fetchBook",
      "outputs": [
        {
          "internalType": "string",
          "name": "title",
          "type": "string"
        },
        {
          "internalType": "string",
          "name": "author",
          "type": "string"
        },
        {
          "internalType": "string",
          "name": "img",
          "type": "string"
        },
        {
          "internalType": "uint256",
          "name": "bookid",
          "type": "uint256"
        },
        {
          "internalType": "uint256",
          "name": "rental",
          "type": "uint256"
        },
        {
          "internalType": "uint256",
          "name": "state",
          "type": "uint256"
        },
        {
          "internalType": "address",
          "name": "lender",
          "type": "address"
        },
        {
          "internalType": "address",
          "name": "borrower",
          "type": "address"
        }
      ],
      "stateMutability": "view",
      "type": "function",
      "constant": true
    },
    {
      "inputs": [],
      "name": "fetchAllBooks",
      "outputs": [
        {
          "components": [
            {
              "internalType": "string",
              "name": "title",
              "type": "string"
            },
            {
              "internalType": "string",
              "name": "author",
              "type": "string"
            },
            {
              "internalType": "string",
              "name": "img",
              "type": "string"
            },
            {
              "internalType": "uint256",
              "name": "bookid",
              "type": "uint256"
            },
            {
              "internalType": "uint256",
              "name": "rental",
              "type": "uint256"
            },
            {
              "internalType": "enum SimpleLibrary.State",
              "name": "state",
              "type": "uint8"
            },
            {
              "internalType": "address payable",
              "name": "lender",
              "type": "address"
            },
            {
              "internalType": "address payable",
              "name": "borrower",
              "type": "address"
            }
          ],
          "internalType": "struct SimpleLibrary.Book[]",
          "name": "",
          "type": "tuple[]"
        }
      ],
      "stateMutability": "view",
      "type": "function",
      "constant": true
    }
  ],
  "bytecode": "0x608060405234801561001057600080fd5b5060008060006101000a81548160ff02191690831515021790555033600060016101000a81548173ffffffffffffffffffffffffffffffffffffffff021916908373ffffffffffffffffffffffffffffffffffffffff160217905550600060018190555061213b806100836000396000f3fe6080604052600436106100915760003560e01c80638456cb59116100595780638456cb5914610175578063a1d49acf1461018c578063aa0cb16b146101d0578063ca5140c9146101fb578063e912832d1461021757610091565b8063046f7da21461009657806345e6df3d146100ad5780635c975abb146100ea57806368744046146101155780637e490a9e14610159575b600080fd5b3480156100a257600080fd5b506100ab610242565b005b3480156100b957600080fd5b506100d460048036038101906100cf9190611867565b6102dc565b6040516100e19190611d1e565b60405180910390f35b3480156100f657600080fd5b506100ff61052c565b60405161010c9190611d1e565b60405180910390f35b34801561012157600080fd5b5061013c60048036038101906101379190611912565b610542565b604051610150989796959493929190611d39565b60405180910390f35b610173600480360381019061016e9190611912565b61079f565b005b34801561018157600080fd5b5061018a610af4565b005b34801561019857600080fd5b506101b360048036038101906101ae9190611912565b610b8e565b6040516101c7989796959493929190611dcc565b60405180910390f35b3480156101dc57600080fd5b506101e5610e8e565b6040516101f29190611cfc565b60405180910390f35b61021560048036038101906102109190611912565b611212565b005b34801561022357600080fd5b5061022c611588565b6040516102399190611eff565b60405180910390f35b600060019054906101000a900473ffffffffffffffffffffffffffffffffffffffff1673ffffffffffffffffffffffffffffffffffffffff163373ffffffffffffffffffffffffffffffffffffffff16146102d2576040517f08c379a00000000000000000000000000000000000000000000000000000000081526004016102c990611edf565b60405180910390fd5b6102da61158e565b565b60008060009054906101000a900460ff161561032d576040517f08c379a000000000000000000000000000000000000000000000000000000000815260040161032490611e9f565b60405180910390fd5b60405180610100016040528086815260200185815260200184815260200160015481526020018381526020016000600181111561036657fe5b81526020013373ffffffffffffffffffffffffffffffffffffffff168152602001600073ffffffffffffffffffffffffffffffffffffffff1681525060026000600154815260200190815260200160002060008201518160000190805190602001906103d39291906116e5565b5060208201518160010190805190602001906103f09291906116e5565b50604082015181600201908051906020019061040d9291906116e5565b50606082015181600301556080820151816004015560a08201518160050160006101000a81548160ff0219169083600181111561044657fe5b021790555060c08201518160050160016101000a81548173ffffffffffffffffffffffffffffffffffffffff021916908373ffffffffffffffffffffffffffffffffffffffff16021790555060e08201518160060160006101000a81548173ffffffffffffffffffffffffffffffffffffffff021916908373ffffffffffffffffffffffffffffffffffffffff16021790555090505060018054016001819055507f1e1193a18f48b349d4081852bfb191b72e22121af42d7526816897a459ae78456001546040516105189190611eff565b60405180910390a160019050949350505050565b60008060009054906101000a900460ff16905090565b6002602052806000526040600020600091509050806000018054600181600116156101000203166002900480601f0160208091040260200160405190810160405280929190818152602001828054600181600116156101000203166002900480156105ee5780601f106105c3576101008083540402835291602001916105ee565b820191906000526020600020905b8154815290600101906020018083116105d157829003601f168201915b505050505090806001018054600181600116156101000203166002900480601f01602080910402602001604051908101604052809291908181526020018280546001816001161561010002031660029004801561068c5780601f106106615761010080835404028352916020019161068c565b820191906000526020600020905b81548152906001019060200180831161066f57829003601f168201915b505050505090806002018054600181600116156101000203166002900480601f01602080910402602001604051908101604052809291908181526020018280546001816001161561010002031660029004801561072a5780601f106106ff5761010080835404028352916020019161072a565b820191906000526020600020905b81548152906001019060200180831161070d57829003601f168201915b5050505050908060030154908060040154908060050160009054906101000a900460ff16908060050160019054906101000a900473ffffffffffffffffffffffffffffffffffffffff16908060060160009054906101000a900473ffffffffffffffffffffffffffffffffffffffff16905088565b60008054906101000a900460ff16156107ed576040517f08c379a00000000000000000000000000000000000000000000000000000000081526004016107e490611e9f565b60405180910390fd5b80600060018111156107fb57fe5b6002600083815260200190815260200160002060050160009054906101000a900460ff16600181111561082a57fe5b14801561084e57506000600260008381526020019081526020016000206004015414155b61085757600080fd5b6002600083815260200190815260200160002060040154803410156108b1576040517f08c379a00000000000000000000000000000000000000000000000000000000081526004016108a890611ebf565b60405180910390fd5b8260015484106108f6576040517f08c379a00000000000000000000000000000000000000000000000000000000081526004016108ed90611e7f565b60405180910390fd5b336002600086815260200190815260200160002060060160006101000a81548173ffffffffffffffffffffffffffffffffffffffff021916908373ffffffffffffffffffffffffffffffffffffffff1602179055506002600085815260200190815260200160002060050160019054906101000a900473ffffffffffffffffffffffffffffffffffffffff1673ffffffffffffffffffffffffffffffffffffffff166108fc60026000878152602001908152602001600020600401549081150290604051600060405180830381858888f193505050501580156109dd573d6000803e3d6000fd5b5060016002600086815260200190815260200160002060050160006101000a81548160ff02191690836001811115610a1157fe5b02179055507f3d225e5351acea03cc7bd453dde2caa4e5ab1b7b768e6c2941363e66358a974084604051610a459190611eff565b60405180910390a1600060026000838152602001908152602001600020600401549050600081340390506002600084815260200190815260200160002060060160009054906101000a900473ffffffffffffffffffffffffffffffffffffffff1673ffffffffffffffffffffffffffffffffffffffff166108fc829081150290604051600060405180830381858888f19350505050158015610aeb573d6000803e3d6000fd5b50505050505050565b600060019054906101000a900473ffffffffffffffffffffffffffffffffffffffff1673ffffffffffffffffffffffffffffffffffffffff163373ffffffffffffffffffffffffffffffffffffffff1614610b84576040517f08c379a0000000000000000000000000000000000000000000000000000000008152600401610b7b90611edf565b60405180910390fd5b610b8c611635565b565b60608060606000806000806000600260008a81526020019081526020016000206000018054600181600116156101000203166002900480601f016020809104026020016040519081016040528092919081815260200182805460018160011615610100020316600290048015610c455780601f10610c1a57610100808354040283529160200191610c45565b820191906000526020600020905b815481529060010190602001808311610c2857829003601f168201915b50505050509750600260008a81526020019081526020016000206001018054600181600116156101000203166002900480601f016020809104026020016040519081016040528092919081815260200182805460018160011615610100020316600290048015610cf65780601f10610ccb57610100808354040283529160200191610cf6565b820191906000526020600020905b815481529060010190602001808311610cd957829003601f168201915b50505050509650600260008a81526020019081526020016000206002018054600181600116156101000203166002900480601f016020809104026020016040519081016040528092919081815260200182805460018160011615610100020316600290048015610da75780601f10610d7c57610100808354040283529160200191610da7565b820191906000526020600020905b815481529060010190602001808311610d8a57829003601f168201915b50505050509550600260008a8152602001908152602001600020600301549450600260008a8152602001908152602001600020600401549350600260008a815260200190815260200160002060050160009054906101000a900460ff166001811115610e0f57fe5b9250600260008a815260200190815260200160002060050160019054906101000a900473ffffffffffffffffffffffffffffffffffffffff169150600260008a815260200190815260200160002060060160009054906101000a900473ffffffffffffffffffffffffffffffffffffffff169050919395975091939597565b60608060015467ffffffffffffffff81118015610eaa57600080fd5b50604051908082528060200260200182016040528015610ee457816020015b610ed1611765565b815260200190600190039081610ec95790505b50905060005b60015481101561120a576002600082815260200190815260200160002060405180610100016040529081600082018054600181600116156101000203166002900480601f016020809104026020016040519081016040528092919081815260200182805460018160011615610100020316600290048015610fac5780601f10610f8157610100808354040283529160200191610fac565b820191906000526020600020905b815481529060010190602001808311610f8f57829003601f168201915b50505050508152602001600182018054600181600116156101000203166002900480601f01602080910402602001604051908101604052809291908181526020018280546001816001161561010002031660029004801561104e5780601f106110235761010080835404028352916020019161104e565b820191906000526020600020905b81548152906001019060200180831161103157829003601f168201915b50505050508152602001600282018054600181600116156101000203166002900480601f0160208091040260200160405190810160405280929190818152602001828054600181600116156101000203166002900480156110f05780601f106110c5576101008083540402835291602001916110f0565b820191906000526020600020905b8154815290600101906020018083116110d357829003601f168201915b5050505050815260200160038201548152602001600482015481526020016005820160009054906101000a900460ff16600181111561112b57fe5b600181111561113657fe5b81526020016005820160019054906101000a900473ffffffffffffffffffffffffffffffffffffffff1673ffffffffffffffffffffffffffffffffffffffff1673ffffffffffffffffffffffffffffffffffffffff1681526020016006820160009054906101000a900473ffffffffffffffffffffffffffffffffffffffff1673ffffffffffffffffffffffffffffffffffffffff1673ffffffffffffffffffffffffffffffffffffffff16815250508282815181106111f257fe5b60200260200101819052508080600101915050610eea565b508091505090565b60008054906101000a900460ff1615611260576040517f08c379a000000000000000000000000000000000000000000000000000000000815260040161125790611e9f565b60405180910390fd5b8060018081111561126d57fe5b6002600083815260200190815260200160002060050160009054906101000a900460ff16600181111561129c57fe5b146112a657600080fd5b600260008381526020019081526020016000206004015480341015611300576040517f08c379a00000000000000000000000000000000000000000000000000000000081526004016112f790611ebf565b60405180910390fd5b600060019054906101000a900473ffffffffffffffffffffffffffffffffffffffff1673ffffffffffffffffffffffffffffffffffffffff163373ffffffffffffffffffffffffffffffffffffffff1614611390576040517f08c379a000000000000000000000000000000000000000000000000000000000815260040161138790611edf565b60405180910390fd5b6002600084815260200190815260200160002060060160009054906101000a900473ffffffffffffffffffffffffffffffffffffffff1673ffffffffffffffffffffffffffffffffffffffff166108fc60026000868152602001908152602001600020600401549081150290604051600060405180830381858888f19350505050158015611422573d6000803e3d6000fd5b5060006002600085815260200190815260200160002060040154340390506002600085815260200190815260200160002060050160019054906101000a900473ffffffffffffffffffffffffffffffffffffffff1673ffffffffffffffffffffffffffffffffffffffff166108fc829081150290604051600060405180830381858888f193505050501580156114bc573d6000803e3d6000fd5b5060006002600086815260200190815260200160002060060160006101000a81548173ffffffffffffffffffffffffffffffffffffffff021916908373ffffffffffffffffffffffffffffffffffffffff16021790555060006002600086815260200190815260200160002060050160006101000a81548160ff0219169083600181111561154657fe5b02179055507f3a1292969465137abeb594d17c6532f0fbc4188abc6d8a5643328420d42e42878460405161157a9190611eff565b60405180910390a150505050565b60015481565b60008054906101000a900460ff166115db576040517f08c379a00000000000000000000000000000000000000000000000000000000081526004016115d290611e5f565b60405180910390fd5b60008060006101000a81548160ff0219169083151502179055507f5db9ee0a495bf2e6ff9c91a7834c1ba4fdd244a5e8aa4e537bd38aeae4b073aa61161e6116dd565b60405161162b9190611ce1565b60405180910390a1565b60008054906101000a900460ff1615611683576040517f08c379a000000000000000000000000000000000000000000000000000000000815260040161167a90611e9f565b60405180910390fd5b60016000806101000a81548160ff0219169083151502179055507f62e78cea01bee320cd4e420270b5ea74000d11b0c9f74754ebdbfc544b05a2586116c66116dd565b6040516116d39190611ce1565b60405180910390a1565b600033905090565b828054600181600116156101000203166002900490600052602060002090601f016020900481019282601f1061172657805160ff1916838001178555611754565b82800160010185558215611754579182015b82811115611753578251825591602001919060010190611738565b5b50905061176191906117e1565b5090565b6040518061010001604052806060815260200160608152602001606081526020016000815260200160008152602001600060018111156117a157fe5b8152602001600073ffffffffffffffffffffffffffffffffffffffff168152602001600073ffffffffffffffffffffffffffffffffffffffff1681525090565b5b808211156117fa5760008160009055506001016117e2565b5090565b600082601f83011261180f57600080fd5b813561182261181d82611f47565b611f1a565b9150808252602083016020830185838301111561183e57600080fd5b61184983828461208e565b50505092915050565b600081359050611861816120ee565b92915050565b6000806000806080858703121561187d57600080fd5b600085013567ffffffffffffffff81111561189757600080fd5b6118a3878288016117fe565b945050602085013567ffffffffffffffff8111156118c057600080fd5b6118cc878288016117fe565b935050604085013567ffffffffffffffff8111156118e957600080fd5b6118f5878288016117fe565b925050606061190687828801611852565b91505092959194509250565b60006020828403121561192457600080fd5b600061193284828501611852565b91505092915050565b60006119478383611c05565b905092915050565b61195881612046565b82525050565b61196781611feb565b82525050565b61197681611feb565b82525050565b61198581611fd9565b82525050565b600061199682611f83565b6119a08185611fa6565b9350836020820285016119b285611f73565b8060005b858110156119ee57848403895281516119cf858261193b565b94506119da83611f99565b925060208a019950506001810190506119b6565b50829750879550505050505092915050565b611a0981611ffd565b82525050565b611a1881612058565b82525050565b611a2781612058565b82525050565b6000611a3882611f8e565b611a428185611fb7565b9350611a5281856020860161209d565b611a5b816120d0565b840191505092915050565b6000611a7182611f8e565b611a7b8185611fc8565b9350611a8b81856020860161209d565b611a94816120d0565b840191505092915050565b6000611aac601483611fc8565b91507f5061757361626c653a206e6f74207061757365640000000000000000000000006000830152602082019050919050565b6000611aec600e83611fc8565b91507f426f6f6b204e6f7420466f756e640000000000000000000000000000000000006000830152602082019050919050565b6000611b2c601083611fc8565b91507f5061757361626c653a20706175736564000000000000000000000000000000006000830152602082019050919050565b6000611b6c602283611fc8565b91507f41646420656e6f7567682045544820746f20636f766572207468652052656e7460008301527f616c0000000000000000000000000000000000000000000000000000000000006020830152604082019050919050565b6000611bd2600a83611fc8565b91507f4f6e6c79204f776e6572000000000000000000000000000000000000000000006000830152602082019050919050565b6000610100830160008301518482036000860152611c238282611a2d565b91505060208301518482036020860152611c3d8282611a2d565b91505060408301518482036040860152611c578282611a2d565b9150506060830151611c6c6060860182611cc3565b506080830151611c7f6080860182611cc3565b5060a0830151611c9260a0860182611a0f565b5060c0830151611ca560c086018261195e565b5060e0830151611cb860e086018261195e565b508091505092915050565b611ccc8161203c565b82525050565b611cdb8161203c565b82525050565b6000602082019050611cf6600083018461194f565b92915050565b60006020820190508181036000830152611d16818461198b565b905092915050565b6000602082019050611d336000830184611a00565b92915050565b6000610100820190508181036000830152611d54818b611a66565b90508181036020830152611d68818a611a66565b90508181036040830152611d7c8189611a66565b9050611d8b6060830188611cd2565b611d986080830187611cd2565b611da560a0830186611a1e565b611db260c083018561196d565b611dbf60e083018461196d565b9998505050505050505050565b6000610100820190508181036000830152611de7818b611a66565b90508181036020830152611dfb818a611a66565b90508181036040830152611e0f8189611a66565b9050611e1e6060830188611cd2565b611e2b6080830187611cd2565b611e3860a0830186611cd2565b611e4560c083018561197c565b611e5260e083018461197c565b9998505050505050505050565b60006020820190508181036000830152611e7881611a9f565b9050919050565b60006020820190508181036000830152611e9881611adf565b9050919050565b60006020820190508181036000830152611eb881611b1f565b9050919050565b60006020820190508181036000830152611ed881611b5f565b9050919050565b60006020820190508181036000830152611ef881611bc5565b9050919050565b6000602082019050611f146000830184611cd2565b92915050565b6000604051905081810181811067ffffffffffffffff82111715611f3d57600080fd5b8060405250919050565b600067ffffffffffffffff821115611f5e57600080fd5b601f19601f8301169050602081019050919050565b6000819050602082019050919050565b600081519050919050565b600081519050919050565b6000602082019050919050565b600082825260208201905092915050565b600082825260208201905092915050565b600082825260208201905092915050565b6000611fe48261201c565b9050919050565b6000611ff68261201c565b9050919050565b60008115159050919050565b6000819050612017826120e1565b919050565b600073ffffffffffffffffffffffffffffffffffffffff82169050919050565b6000819050919050565b60006120518261206a565b9050919050565b600061206382612009565b9050919050565b60006120758261207c565b9050919050565b60006120878261201c565b9050919050565b82818337600083830152505050565b60005b838110156120bb5780820151818401526020810190506120a0565b838111156120ca576000848401525b50505050565b6000601f19601f8301169050919050565b600281106120eb57fe5b50565b6120f78161203c565b811461210257600080fd5b5056fea26469706673582212207e5b8f37e9149da67df7d08ad37c370fc0a825debf2ca562c130ee8751728adb64736f6c634300060c0033",
  "immutableReferences": {},
  "source": "// SPDX-License-Identifier: MIT\n\n/// @title Simple Library\n/// @author Shaikh Farhan\n/// A simple implementation of a zero-fee (gas excl.) P2P book lending/borrowing marketplace.\n\npragma solidity >=0.6.0 <0.7.0;\npragma experimental ABIEncoderV2;\n\nimport \"@openzeppelin/contracts/utils/Pausable.sol\";\n\ncontract SimpleLibrary is Pausable {\n\n  /* Contract Owner */\n  address owner;\n\n  /* Variable for tracking total number of books in catalog */\n  uint public bookId;\n\n  /* Books Mapping\n  */\n  mapping (uint => Book) public books;\n\n  /* Book states:\n  Available = Ready to Borrow\n  Borrowed = With a Borrower\n  */\n  enum State {\n    Available,\n    Borrowed\n  }\n\n\n  /* Struct for books\n  title, author plain strings\n  img to be used for external image URLs to present in UI\n  rental is the \"deposit\" to be paid to borrow the book, this is reimbursed when the book is returned\n  */\n  struct Book {\n    string title;\n    string author;\n    string img;\n    uint bookid;\n    uint rental;\n    State state;\n    address payable lender;\n    address payable borrower;\n  }\n\n  /* Only log book-related actions: addition, borrow, and returns */\n  event LogBookAdded(uint bookid);\n  event LogBookBorrowed(uint bookid);\n  event LogBookReturned(uint bookid);\n\n  /* isOwner for implementation in most admin functions*/\n  modifier isOwner() { require(msg.sender == owner, \"Only Owner\"); _;}\n  modifier verifyCaller (address _address) { require (msg.sender == _address); _;}\n  /* Has the user paid enough to cover rental fee? If yes, and if in excess checkValue returns additional value */\n  modifier paidEnough(uint _rental) { require(msg.value >= _rental, \"Add enough ETH to cover the Rental\"); _;}\n  modifier checkValue(uint _bookid) {\n    _;\n    uint _rental = books[_bookid].rental;\n    uint amountToRefund = msg.value - _rental;\n    books[_bookid].borrower.transfer(amountToRefund);\n  }\n\n  /* Mods to check if bookAdded or borrowed */\n  modifier bookAdded(uint _bookid) { require(books[_bookid].state == State.Available && books[_bookid].rental != 0); _;}\n  modifier borrowed(uint _bookid) { require(books[_bookid].state == State.Borrowed); _;}\n\n  constructor() public {\n    /* Initial values */\n    owner = msg.sender;\n    bookId = 0;\n  }\n\n  ///Add Book\n\n  /* Lender sets the rental/deposit fee and supplies supporting data\n  Only possible when contract is whenNotPaused\n  Emit LogBookAdded */\n  function addBook(string memory _title, string memory _author, string memory _img, uint _rental) public whenNotPaused() returns(bool){\n    books[bookId] = Book({title: _title, author: _author, img: _img, bookid: bookId, rental: _rental, state: State.Available, lender: msg.sender, borrower: address(0)});\n    bookId = bookId + 1;\n    emit LogBookAdded(bookId);\n    return true;\n  }\n\n  ///Borrow Book\n\n  /* Borrower sends payment for borrowing book, excess is returned back to the borrower\n  Only possible when contract is whenNotPaused\n  Emit LogBookBorrowed */\n  function borrowBook (uint bookid)\n    public payable whenNotPaused() bookAdded(bookid) paidEnough(books[bookid].rental) checkValue(bookid) {\n    require(bookid < bookId, \"Book Not Found\");\n    books[bookid].borrower = msg.sender;\n    books[bookid].lender.transfer(books[bookid].rental);\n    books[bookid].state = State.Borrowed;\n    emit LogBookBorrowed(bookid);\n  }\n\n  ///Return Book\n  \n  /* When the borrower sends the book back to the lender, lender calls this to put it back in catalog with available state\n  The initial deposit/rental paid by the borrower is reeimbursed using a similar mechanism to checkValue()\n  Emit LogBookReturned */\n  function returnBook (uint bookid)\n    public payable whenNotPaused() borrowed(bookid) paidEnough(books[bookid].rental) isOwner()\n  {\n    books[bookid].borrower.transfer(books[bookid].rental);\n    uint amountToRefund = msg.value - books[bookid].rental;\n    books[bookid].lender.transfer(amountToRefund);\n    books[bookid].borrower = address(0);\n    books[bookid].state = State.Available;\n    emit LogBookReturned(bookid);\n  }\n\n  ///Open Zeppelin Pausable implementation, call to internal function limited to owner\n  function pause() public isOwner\n  {\n    _pause();\n  }\n\n  ///Open Zeppelin Pausable implementation, call to internal function limited to owner\n  function resume() public isOwner\n  {\n    _unpause();\n  }\n\n  ///Get data for a book by bookid\n  function fetchBook(uint _bookid) public view returns (string memory title, string memory author, string memory img, uint bookid, uint rental, uint state, address lender, address borrower) {\n    title = books[_bookid].title;\n    author = books[_bookid].author;\n    img = books[_bookid].img;\n    bookid = books[_bookid].bookid;\n    rental = books[_bookid].rental;\n    state = uint(books[_bookid].state);\n    lender = books[_bookid].lender;\n    borrower = books[_bookid].borrower;\n    return (title, author, img, bookid, rental, state, lender, borrower);\n  }\n\n\n  ///Tuple return of all books in catalog for the UI demo, this requires Experimental ABIEncoderV2\n  function fetchAllBooks() external view returns (Book[] memory) {\n    Book[] memory allbooks = new Book[](bookId);\n    for (uint i = 0; i < bookId; i++) {\n        allbooks[i] = books[i];\n    }\n    return allbooks;\n  } \n\n}\n",
  "sourcePath": "/Users/farhan/Documents/GitHub/SimpleLibraryAttempt/contracts/SimpleLibrary.sol",
  "compiler": {
    "name": "solc",
    "version": "0.6.12+commit.27d51765.Emscripten.clang"
  },
  "schemaVersion": "3.3.2",
  "updatedAt": "2020-12-01T07:00:22.385Z",
  "networkType": "ethereum",
  "devdoc": {
    "kind": "dev",
    "methods": {
      "paused()": {
        "details": "Returns true if the contract is paused, and false otherwise."
      }
    },
    "version": 1
  },
  "userdoc": {
    "kind": "user",
    "methods": {
      "addBook(string,string,string,uint256)": {
        "notice": "Add Book"
      },
      "borrowBook(uint256)": {
        "notice": "Borrow Book"
      },
      "fetchAllBooks()": {
        "notice": "Tuple return of all books in catalog for the UI demo, this requires Experimental ABIEncoderV2"
      },
      "fetchBook(uint256)": {
        "notice": "Get data for a book by bookid"
      },
      "pause()": {
        "notice": "Open Zeppelin Pausable implementation, call to internal function limited to owner"
      },
      "resume()": {
        "notice": "Open Zeppelin Pausable implementation, call to internal function limited to owner"
      },
      "returnBook(uint256)": {
        "notice": "Return Book"
      }
    },
    "version": 1
  }
}